:020000042000DA
:10000000FC3F0020C50D0020290E0020290E0020F5
:10001000290E0020290E0020290E002000000000DB
:10002000000000000000000000000000290E002079
:10003000290E002000000000290E0020290E0020BB
:10004000290E0020290E0020290E0020290E002054
:10005000290E0020290E0020290E0020290E002044
:10006000290E0020290E0020290E0020290E002034
:10007000290E0020290E0020290E0020290E002024
:1002500080B400AF0023C8F203039A69022161F35E
:1002600001029A610023C8F203039A69022161F333
:1002700083029A610023C8F203039A69022161F3A1
:1002800005129A610023C8F203039A69022161F3FF
:1002900087129A610023C8F203039A69022161F36D
:1002A00009229A610023C8F203039A69022161F3CB
:1002B0008B229A610023C8F203039A69022161F339
:1002C0000D329A610023C8F203039A69022161F397
:1002D0008F329A610023C8F203039A696FF31142C7
:1002E0009A610023C8F203039A696FF393429A61FB
:1002F0000023C8F203039A696FF315529A61002331
:10030000C8F203039A696FF397529A610023C8F207
:1003100003039A696FF319629A610023C8F2030319
:100320009A696FF39B629A610023C8F203039A698A
:100330006FF31D729A610023C8F203039A696FF389
:100340009F729A610023C8F20303DA69022161F304
:100350008712DA610023C8F20303DA696FF3092216
:10036000DA610023C8F20303DA696FF38B22DA61E2
:100370000023C8F20303DA696FF30D32DA61002358
:10038000C8F20303DA696FF38F32DA610023C8F22F
:100390000303DA696FF31142DA610023C8F2030341
:1003A000DA696FF39342DA610023C8F20303DA6972
:1003B0006FF31552DA610023C8F20303DA696FF3B1
:1003C0009752DA610023C8F20303DA696FF3196206
:1003D000DA610023C8F20303DA696FF39B62DA6122
:1003E0000023C8F20303DA696FF31D72DA61002398
:1003F000C8F20303DA696FF39F72DA610023C8F26F
:1004000003031A6A022161F301021A620023C8F28F
:1004100003031A6A022161F383021A620023C8F2FD
:1004200003031A6A022161F305121A620023C8F25B
:1004300003031A6A022161F387121A620023C8F2C9
:1004400003031A6A022161F309221A620023C8F227
:1004500003031A6A022161F38B221A620023C8F295
:1004600003031A6A6FF30D321A620023C8F2030302
:100470001A6A6FF38F321A620023C8F203031A6AF2
:100480006FF311421A620023C8F203031A6A6FF372
:1004900093421A620023C8F203031A6A6FF31552DB
:1004A0001A620023C8F203031A6A6FF397521A62A2
:1004B0000023C8F203031A6A6FF319621A62002359
:1004C000C8F203031A6A6FF39B621A620023C8F230
:1004D00003031A6A6FF31D721A620023C8F2030342
:1004E0001A6A6FF39F721A620023C8F203035A6AF2
:1004F000022161F301025A620023C8F203035A6A1F
:10050000022161F383025A620023C8F203035A6A8C
:10051000022161F305125A620023C8F203035A6AEA
:10052000022161F387125A620023C8F203035A6A58
:10053000022161F309225A620023C8F203035A6AB6
:10054000022161F38B225A620023C8F203035A6A24
:10055000022161F30D325A620023C8F203035A6A82
:10056000022161F38F325A620023C8F203035A6AF0
:10057000022161F311425A620023C8F203035A6A4E
:10058000022161F393425A620023C8F203035A6ABC
:10059000022161F315525A620023C8F203035A6A1A
:1005A000022161F397525A620023C8F203035A6A88
:1005B0006FF319625A620023C8F203035A6A6FF399
:1005C0009B625A620023C8F203035A6A6FF31D72DA
:1005D0005A620023C8F203035A6A6FF39F725A6289
:1005E0000023C8F203039A6A022161F301029A62AE
:1005F0000023C8F203039A6A022161F305129A628A
:100600000023C8F203039A6A022161F387129A62F7
:100610000023C8F203039A6A022161F309229A6255
:100620000023C8F203039A6A022161F38B229A62C3
:100630000023C8F203039A6A022161F30D329A6221
:100640000023C8F203039A6A6FF38F329A62002381
:10065000C8F203039A6A022161F311429A620023ED
:10066000C8F203039A6A022161F393429A6200235B
:10067000C8F203039A6A022161F397529A62002337
:10068000C8F203039A6A6FF319629A620023C8F2F0
:1006900003039A6A6FF39B629A620023C8F2030312
:1006A0009A6A6FF31D729A620023C8F203039A6A72
:1006B0006FF39F729A620023C8F20303DA6A022181
:1006C00061F30102DA620023C8F20303DA6A02214D
:1006D00061F38302DA620023C8F20303DA6A0121BC
:1006E00061F30512DA620023C8F20303DA6A022119
:1006F00061F38712DA620023C8F20303DA6A022187
:1007000061F30922DA620023C8F20303DA6A0221E4
:1007100061F38B22DA620023C8F20303DA6A6FF313
:100720000D32DA620023C8F20303DA6A6FF38F3204
:10073000DA620023C8F20303DA6A6FF31142DA6265
:100740000023C8F20303DA6A6FF39342DA620023EC
:10075000C8F20303DA6A012161F31552DA62002359
:10076000C8F20303DA6A012161F39752DA620023C7
:10077000C8F20303DA6A012161F31962DA62002325
:10078000C8F20303DA6A012161F39B62DA62002393
:10079000C8F20303DA6A012161F31D72DA620023F1
:1007A000C8F20303DA6A012161F39F72DA6200235F
:1007B000C8F203031A6B6FF301021A630023C8F235
:1007C00003031A6B6FF383021A630023C8F2030357
:1007D0001A6B022161F305121A630023C8F20303A6
:1007E0001A6B012161F387121A630023C8F2030315
:1007F0001A6B022161F309221A630023C8F2030372
:100800001A6B022161F38B221A630023C8F20303DF
:100810001A6B022161F30D321A630023C8F203033D
:100820001A6B022161F38F321A630023C8F20303AB
:100830001A6B012161F311421A630023C8F203030A
:100840001A6B022161F393421A630023C8F2030377
:100850001A6B022161F315521A630023C8F20303D5
:100860001A6B022161F397521A630023C8F2030343
:100870001A6B022161F319621A630023C8F20303A1
:100880001A6B6FF39B621A630023C8F203031A6B9F
:100890006FF31D721A630023C8F203031A6B6FF320
:1008A0009F721A630023C8F203035A6B6FF30102AD
:1008B0005A630023C8F203035A6B012161F38302D8
:1008C0005A630023C8F203035A6B012161F3051236
:1008D0005A630023C8F203035A6B012161F38712A4
:1008E0005A630023C8F203035A6B012161F3092202
:1008F0005A630023C8F203035A6B012161F38B2270
:100900005A630023C8F203035A6B012161F30D32CD
:100910005A630023C8F203035A6B012161F38F323B
:100920005A63BD465DF8047B704700BF80B582B056
:1009300000AF4FF44043CAF201030622C3F88020FF
:100940000023C8F203030222C3F898200023C8F250
:1009500003030122C3F89C200023C8F203033022C2
:10096000C3F8A0200023C8F203030022C3F8B82074
:100970000023C8F203030322C3F8B82000233B601E
:1009800002E03B6801333B603B68312BF9DD00231B
:10099000C8F20303D3F8B830C3F30223DBB2032B4E
:1009A000E0D10023C8F203034FF6FF72C0F20F122A
:1009B000C3F8BC2000237B600EE00023C8F20303D1
:1009C0000022C3F8C8200023C8F203030022C3F8A2
:1009D000CC207B6801337B607B68632BEDDD0023DB
:1009E000C8F203034FF0FF32C3F8C8200023C8F257
:1009F00003034FF0FF32C3F8CC200023C8F20303F7
:100A00004FF0FF321A600023C8F203034FF0FF32A9
:100A10005A600023C8F203034FF0FF329A600023AC
:100A2000C8F203034FF0FF32DA600023C8F2030379
:100A30004FF00F32C3F8A8200023C8F203034FF091
:100A40000F32C3F8AC200023C8F203034FF00F327B
:100A5000C3F83C210023C8F203034FF00732C3F868
:100A6000C0200023C8F203034FF4E022C3F8C420DF
:100A7000FFF7EEFB0837BD4680BD00BF80B400AF76
:100A80004FF40053C8F20103DA69042161F30F0245
:100A9000DA614FF40053C8F201034FF40052C8F278
:100AA0000102126992B242F0040291B21A6961F332
:100AB0000F021A614FF40053C8F20103DA690821EA
:100AC00061F30F02DA614FF40053C8F201034FF4EF
:100AD0000052C8F20102126992B242F0080291B2C9
:100AE0001A6961F30F021A614FF48053C8F20103CF
:100AF000DA69202161F30F02DA614FF48053C8F202
:100B000001034FF48052C8F20102126992B242F01E
:100B1000200291B21A6961F30F021A614FF48053F7
:100B2000C8F20103DA69402161F30F02DA614FF480
:100B30008053C8F201034FF48052C8F201021269D7
:100B400092B242F0400291B21A6961F30F021A6147
:100B50004FF48053C8F20103DA69802161F30F0278
:100B6000DA614FF48053C8F201034FF48052C8F2A7
:100B70000102126992B242F0800291B21A6961F3E5
:100B80000F021A614FF48053C8F20103DA694FF47F
:100B9000807161F30F02DA614FF48053C8F20103F0
:100BA0004FF48052C8F20102126992B242F480728C
:100BB00091B21A6961F30F021A61BD465DF8047BB8
:100BC000704700BF80B400AF40F63063C2F200034C
:100BD0001A6840F62C63C2F200031B689A4240F385
:100BE000D78040F63063C2F2000300221A6040F65C
:100BF0003463C2F200031B685A1C40F63463C2F22D
:100C000000031A6040F63463C2F200031B6803F06D
:100C10003F0240F63463C2F200031A6040F63463C8
:100C2000C2F200031B6803F02003002B0AD04FF42C
:100C30000053C8F20103D3F820246FF30702C3F86E
:100C400020240AE04FF40053C8F20103D3F8202413
:100C5000082161F30702C3F8202440F63463C2F28E
:100C600000031B6803F01003002B0AD04FF400535D
:100C7000C8F20103D3F810246FF30702C3F810245D
:100C80000AE04FF40053C8F20103D3F81024042102
:100C900061F30702C3F8102440F63463C2F2000384
:100CA0001B6803F00803002B0AD04FF48053C8F2EE
:100CB0000103D3F880246FF30702C3F880240AE00D
:100CC0004FF48053C8F20103D3F88024202161F34C
:100CD0000702C3F8802440F63463C2F200031B68A5
:100CE00003F00403002B0AD04FF48053C8F2010331
:100CF000D3F800256FF30702C3F800250AE04FF48C
:100D00008053C8F20103D3F80025402161F30702A4
:100D1000C3F8002540F63463C2F200031B6803F0F9
:100D20000203002B0AD04FF48053C8F20103D3F81A
:100D300000266FF30702C3F800260AE04FF4805341
:100D4000C8F20103D3F80026802161F30702C3F83B
:100D5000002640F63463C2F200031B6803F001036F
:100D6000002B0AD04FF48053C8F20103D3F80428B3
:100D70006FF30F22C3F804280AE04FF48053C8F23F
:100D80000103D3F80428012161F30F22C3F80428DA
:100D900040F63063C2F200031B685A1C40F6306311
:100DA000C2F200031A60BD465DF8047B704700BFC5
:100DB00080B500AFFFF7BAFDFFF760FEFFF702FF57
:100DC000FCE700BF002103E0104B5B5843500431A7
:100DD0000F48104B42189A42F6D30F4A02E0002304
:100DE00042F8043B0D4B9A42F9D3DFF83400016816
:100DF00041F470010160BFF34F8FBFF36F8F09485B
:100E000080F30888FFF7D4FF70470000300E002001
:100E10002C0E0020300E0020300E0020380E002056
:0C0E200088ED00E0FC3F0020FEE7000031
:040E300020A10700F6
:0400000520000DC505
:00000001FF
